{
  "_format": "hh-sol-artifact-1",
  "contractName": "YesToken",
  "sourceName": "contracts/YesToken.sol",
  "abi": [
    {
      "inputs": [
        {
          "internalType": "address",
          "name": "initialOwner",
          "type": "address"
        }
      ],
      "stateMutability": "nonpayable",
      "type": "constructor"
    },
    {
      "inputs": [
        {
          "internalType": "address",
          "name": "sender",
          "type": "address"
        },
        {
          "internalType": "uint256",
          "name": "balance",
          "type": "uint256"
        },
        {
          "internalType": "uint256",
          "name": "needed",
          "type": "uint256"
        },
        {
          "internalType": "uint256",
          "name": "tokenId",
          "type": "uint256"
        }
      ],
      "name": "ERC1155InsufficientBalance",
      "type": "error"
    },
    {
      "inputs": [
        {
          "internalType": "address",
          "name": "approver",
          "type": "address"
        }
      ],
      "name": "ERC1155InvalidApprover",
      "type": "error"
    },
    {
      "inputs": [
        {
          "internalType": "uint256",
          "name": "idsLength",
          "type": "uint256"
        },
        {
          "internalType": "uint256",
          "name": "valuesLength",
          "type": "uint256"
        }
      ],
      "name": "ERC1155InvalidArrayLength",
      "type": "error"
    },
    {
      "inputs": [
        {
          "internalType": "address",
          "name": "operator",
          "type": "address"
        }
      ],
      "name": "ERC1155InvalidOperator",
      "type": "error"
    },
    {
      "inputs": [
        {
          "internalType": "address",
          "name": "receiver",
          "type": "address"
        }
      ],
      "name": "ERC1155InvalidReceiver",
      "type": "error"
    },
    {
      "inputs": [
        {
          "internalType": "address",
          "name": "sender",
          "type": "address"
        }
      ],
      "name": "ERC1155InvalidSender",
      "type": "error"
    },
    {
      "inputs": [
        {
          "internalType": "address",
          "name": "operator",
          "type": "address"
        },
        {
          "internalType": "address",
          "name": "owner",
          "type": "address"
        }
      ],
      "name": "ERC1155MissingApprovalForAll",
      "type": "error"
    },
    {
      "inputs": [
        {
          "internalType": "address",
          "name": "owner",
          "type": "address"
        }
      ],
      "name": "OwnableInvalidOwner",
      "type": "error"
    },
    {
      "inputs": [
        {
          "internalType": "address",
          "name": "account",
          "type": "address"
        }
      ],
      "name": "OwnableUnauthorizedAccount",
      "type": "error"
    },
    {
      "anonymous": false,
      "inputs": [
        {
          "indexed": true,
          "internalType": "address",
          "name": "account",
          "type": "address"
        },
        {
          "indexed": true,
          "internalType": "address",
          "name": "operator",
          "type": "address"
        },
        {
          "indexed": false,
          "internalType": "bool",
          "name": "approved",
          "type": "bool"
        }
      ],
      "name": "ApprovalForAll",
      "type": "event"
    },
    {
      "anonymous": false,
      "inputs": [
        {
          "indexed": true,
          "internalType": "address",
          "name": "previousOwner",
          "type": "address"
        },
        {
          "indexed": true,
          "internalType": "address",
          "name": "newOwner",
          "type": "address"
        }
      ],
      "name": "OwnershipTransferred",
      "type": "event"
    },
    {
      "anonymous": false,
      "inputs": [
        {
          "indexed": true,
          "internalType": "address",
          "name": "operator",
          "type": "address"
        },
        {
          "indexed": true,
          "internalType": "address",
          "name": "from",
          "type": "address"
        },
        {
          "indexed": true,
          "internalType": "address",
          "name": "to",
          "type": "address"
        },
        {
          "indexed": false,
          "internalType": "uint256[]",
          "name": "ids",
          "type": "uint256[]"
        },
        {
          "indexed": false,
          "internalType": "uint256[]",
          "name": "values",
          "type": "uint256[]"
        }
      ],
      "name": "TransferBatch",
      "type": "event"
    },
    {
      "anonymous": false,
      "inputs": [
        {
          "indexed": true,
          "internalType": "address",
          "name": "operator",
          "type": "address"
        },
        {
          "indexed": true,
          "internalType": "address",
          "name": "from",
          "type": "address"
        },
        {
          "indexed": true,
          "internalType": "address",
          "name": "to",
          "type": "address"
        },
        {
          "indexed": false,
          "internalType": "uint256",
          "name": "id",
          "type": "uint256"
        },
        {
          "indexed": false,
          "internalType": "uint256",
          "name": "value",
          "type": "uint256"
        }
      ],
      "name": "TransferSingle",
      "type": "event"
    },
    {
      "anonymous": false,
      "inputs": [
        {
          "indexed": false,
          "internalType": "string",
          "name": "value",
          "type": "string"
        },
        {
          "indexed": true,
          "internalType": "uint256",
          "name": "id",
          "type": "uint256"
        }
      ],
      "name": "URI",
      "type": "event"
    },
    {
      "inputs": [
        {
          "internalType": "uint256",
          "name": "",
          "type": "uint256"
        }
      ],
      "name": "PredictionMarketContracts",
      "outputs": [
        {
          "internalType": "address",
          "name": "",
          "type": "address"
        }
      ],
      "stateMutability": "view",
      "type": "function"
    },
    {
      "inputs": [
        {
          "internalType": "uint256",
          "name": "id",
          "type": "uint256"
        },
        {
          "internalType": "address",
          "name": "marketContract",
          "type": "address"
        }
      ],
      "name": "addPredictionMarket",
      "outputs": [],
      "stateMutability": "nonpayable",
      "type": "function"
    },
    {
      "inputs": [
        {
          "internalType": "address",
          "name": "account",
          "type": "address"
        },
        {
          "internalType": "uint256",
          "name": "id",
          "type": "uint256"
        }
      ],
      "name": "balanceOf",
      "outputs": [
        {
          "internalType": "uint256",
          "name": "",
          "type": "uint256"
        }
      ],
      "stateMutability": "view",
      "type": "function"
    },
    {
      "inputs": [
        {
          "internalType": "address[]",
          "name": "accounts",
          "type": "address[]"
        },
        {
          "internalType": "uint256[]",
          "name": "ids",
          "type": "uint256[]"
        }
      ],
      "name": "balanceOfBatch",
      "outputs": [
        {
          "internalType": "uint256[]",
          "name": "",
          "type": "uint256[]"
        }
      ],
      "stateMutability": "view",
      "type": "function"
    },
    {
      "inputs": [
        {
          "internalType": "address",
          "name": "account",
          "type": "address"
        },
        {
          "internalType": "uint256",
          "name": "id",
          "type": "uint256"
        },
        {
          "internalType": "uint256",
          "name": "amount",
          "type": "uint256"
        }
      ],
      "name": "burn",
      "outputs": [],
      "stateMutability": "nonpayable",
      "type": "function"
    },
    {
      "inputs": [
        {
          "internalType": "address",
          "name": "account",
          "type": "address"
        },
        {
          "internalType": "uint256[]",
          "name": "ids",
          "type": "uint256[]"
        },
        {
          "internalType": "uint256[]",
          "name": "values",
          "type": "uint256[]"
        }
      ],
      "name": "burnBatch",
      "outputs": [],
      "stateMutability": "nonpayable",
      "type": "function"
    },
    {
      "inputs": [
        {
          "internalType": "address",
          "name": "account",
          "type": "address"
        },
        {
          "internalType": "address",
          "name": "operator",
          "type": "address"
        }
      ],
      "name": "isApprovedForAll",
      "outputs": [
        {
          "internalType": "bool",
          "name": "",
          "type": "bool"
        }
      ],
      "stateMutability": "view",
      "type": "function"
    },
    {
      "inputs": [
        {
          "internalType": "address",
          "name": "account",
          "type": "address"
        },
        {
          "internalType": "uint256",
          "name": "id",
          "type": "uint256"
        },
        {
          "internalType": "uint256",
          "name": "amount",
          "type": "uint256"
        },
        {
          "internalType": "bytes",
          "name": "data",
          "type": "bytes"
        }
      ],
      "name": "mint",
      "outputs": [],
      "stateMutability": "nonpayable",
      "type": "function"
    },
    {
      "inputs": [],
      "name": "owner",
      "outputs": [
        {
          "internalType": "address",
          "name": "",
          "type": "address"
        }
      ],
      "stateMutability": "view",
      "type": "function"
    },
    {
      "inputs": [
        {
          "internalType": "uint256",
          "name": "id",
          "type": "uint256"
        }
      ],
      "name": "removePredictionMarket",
      "outputs": [],
      "stateMutability": "nonpayable",
      "type": "function"
    },
    {
      "inputs": [],
      "name": "renounceOwnership",
      "outputs": [],
      "stateMutability": "nonpayable",
      "type": "function"
    },
    {
      "inputs": [
        {
          "internalType": "address",
          "name": "from",
          "type": "address"
        },
        {
          "internalType": "address",
          "name": "to",
          "type": "address"
        },
        {
          "internalType": "uint256[]",
          "name": "ids",
          "type": "uint256[]"
        },
        {
          "internalType": "uint256[]",
          "name": "values",
          "type": "uint256[]"
        },
        {
          "internalType": "bytes",
          "name": "data",
          "type": "bytes"
        }
      ],
      "name": "safeBatchTransferFrom",
      "outputs": [],
      "stateMutability": "nonpayable",
      "type": "function"
    },
    {
      "inputs": [
        {
          "internalType": "address",
          "name": "from",
          "type": "address"
        },
        {
          "internalType": "address",
          "name": "to",
          "type": "address"
        },
        {
          "internalType": "uint256",
          "name": "id",
          "type": "uint256"
        },
        {
          "internalType": "uint256",
          "name": "value",
          "type": "uint256"
        },
        {
          "internalType": "bytes",
          "name": "data",
          "type": "bytes"
        }
      ],
      "name": "safeTransferFrom",
      "outputs": [],
      "stateMutability": "nonpayable",
      "type": "function"
    },
    {
      "inputs": [
        {
          "internalType": "address",
          "name": "operator",
          "type": "address"
        },
        {
          "internalType": "bool",
          "name": "approved",
          "type": "bool"
        }
      ],
      "name": "setApprovalForAll",
      "outputs": [],
      "stateMutability": "nonpayable",
      "type": "function"
    },
    {
      "inputs": [
        {
          "internalType": "string",
          "name": "newuri",
          "type": "string"
        }
      ],
      "name": "setURI",
      "outputs": [],
      "stateMutability": "nonpayable",
      "type": "function"
    },
    {
      "inputs": [
        {
          "internalType": "bytes4",
          "name": "interfaceId",
          "type": "bytes4"
        }
      ],
      "name": "supportsInterface",
      "outputs": [
        {
          "internalType": "bool",
          "name": "",
          "type": "bool"
        }
      ],
      "stateMutability": "view",
      "type": "function"
    },
    {
      "inputs": [
        {
          "internalType": "address",
          "name": "to",
          "type": "address"
        },
        {
          "internalType": "uint256",
          "name": "id",
          "type": "uint256"
        },
        {
          "internalType": "uint256",
          "name": "amount",
          "type": "uint256"
        }
      ],
      "name": "transfer",
      "outputs": [],
      "stateMutability": "nonpayable",
      "type": "function"
    },
    {
      "inputs": [
        {
          "internalType": "address",
          "name": "newOwner",
          "type": "address"
        }
      ],
      "name": "transferOwnership",
      "outputs": [],
      "stateMutability": "nonpayable",
      "type": "function"
    },
    {
      "inputs": [
        {
          "internalType": "uint256",
          "name": "id",
          "type": "uint256"
        },
        {
          "internalType": "address",
          "name": "marketContract",
          "type": "address"
        }
      ],
      "name": "updatePredictionMarket",
      "outputs": [],
      "stateMutability": "nonpayable",
      "type": "function"
    },
    {
      "inputs": [
        {
          "internalType": "uint256",
          "name": "",
          "type": "uint256"
        }
      ],
      "name": "uri",
      "outputs": [
        {
          "internalType": "string",
          "name": "",
          "type": "string"
        }
      ],
      "stateMutability": "view",
      "type": "function"
    }
  ],
  "bytecode": "0x60803462000188576001600160401b0390601f62001c3438819003918201601f19168301918483118484101762000174578084926020946040528339810103126200018857516001600160a01b0391828216918290036200018857604051602081019182118183101762000174575f9160405252600254600190600181811c9116801562000169575b60208210146200015557601f81116200010b575b50505f6002558015620000f357600380546001600160a01b03198116831790915560405192167f8be0079c531659141344cd1fd0a4f28419497f9722a3daafe3b4186f6b6457e05f80a3611aa790816200018d8239f35b604051631e4fbdf760e01b81525f6004820152602490fd5b60025f52601f0160051c7f405787fa12a823e0f2b7631cc41b3ba8828b3321ca811111fa75cd3aa3bb5ace908101905b8181106200014a57506200009c565b5f815582016200013b565b634e487b7160e01b5f52602260045260245ffd5b90607f169062000088565b634e487b7160e01b5f52604160045260245ffd5b5f80fdfe60806040526004361015610011575f80fd5b5f3560e01c8062fdd58e1461015357806301ffc9a71461014e57806302fe530514610149578063095bcdb6146101445780630e89341c1461013f5780632eb2c2d61461013a5780634e1273f4146101355780635da16346146101305780636b20c4541461012b578063715018a614610126578063731133e9146101215780638a3cf7aa1461011c5780638da5cb5b14610117578063909cd6a1146101125780639366d8e91461010d578063a22cb46514610108578063e985e9c514610103578063f242432a146100fe578063f2fde38b146100f95763f5298aca146100f4575f80fd5b610f00565b610e74565b610e20565b610dc4565b610d09565b610cd7565b610c45565b610c1d565b610bb6565b610ae1565b610a86565b61099d565b6108cf565b610814565b6106ac565b610542565b610469565b610311565b6101fa565b61019c565b600435906001600160a01b038216820361016e57565b5f80fd5b602435906001600160a01b038216820361016e57565b35906001600160a01b038216820361016e57565b3461016e57604036600319011261016e5760206101e06101ba610158565b6024355f908152602081815260408083206001600160a01b039094168352929052205490565b604051908152f35b6001600160e01b031981160361016e57565b3461016e57602036600319011261016e576020600435610219816101e8565b63ffffffff60e01b16636cdb3d1360e11b8114908115610257575b8115610246575b506040519015158152f35b6301ffc9a760e01b1490505f61023b565b6303a24d0760e21b81149150610234565b634e487b7160e01b5f52604160045260245ffd5b6020810190811067ffffffffffffffff82111761029857604052565b610268565b90601f8019910116810190811067ffffffffffffffff82111761029857604052565b67ffffffffffffffff811161029857601f01601f191660200190565b9291926102e7826102bf565b916102f5604051938461029d565b82948184528183011161016e578281602093845f960137010152565b3461016e5760208060031936011261016e5767ffffffffffffffff60043581811161016e573660238201121561016e576103559036906024816004013591016102db565b9161035e6111cd565b82519182116102985761037b82610376600254610fd7565b6111f9565b602090601f83116001146103bb575081906103ab935f926103b0575b50508160011b915f199060031b1c19161790565b600255005b015190505f80610397565b90601f198316936103ed60025f527f405787fa12a823e0f2b7631cc41b3ba8828b3321ca811111fa75cd3aa3bb5ace90565b925f905b868210610427575050836001951061040f575b505050811b01600255005b01515f1960f88460031b161c191690555f8080610404565b806001859682949686015181550195019301906103f1565b606090600319011261016e576004356001600160a01b038116810361016e57906024359060443590565b3461016e576104773661043f565b5f828152602081815260408083203384529091529020919291819054106104b4576104b292604051926104a98461027c565b5f845233611132565b005b60405162461bcd60e51b8152602060048201526014602482015273496e73756666696369656e742062616c616e636560601b6044820152606490fd5b91908251928382525f5b84811061051a575050825f602080949584010152601f8019910116010190565b6020818301810151848301820152016104fa565b90602061053f9281815201906104f0565b90565b3461016e5760208060031936011261016e576040515f9160025461056581610fd7565b808452906001908181169081156105f9575060011461059f575b61059b8461058f8188038261029d565b6040519182918261052e565b0390f35b60025f9081529294507f405787fa12a823e0f2b7631cc41b3ba8828b3321ca811111fa75cd3aa3bb5ace5b8284106105e6575050508161059b9361058f928201019361057f565b80548585018701529285019281016105ca565b60ff1916858501525050151560051b820101915061058f8161059b61057f565b67ffffffffffffffff81116102985760051b60200190565b9080601f8301121561016e57602090823561064b81610619565b93610659604051958661029d565b81855260208086019260051b82010192831161016e57602001905b828210610682575050505090565b81358152908301908301610674565b9080601f8301121561016e5781602061053f933591016102db565b3461016e5760a036600319011261016e576106c5610158565b6106cd610172565b906044359167ffffffffffffffff9081841161016e576106f260049436908601610631565b9060643583811161016e5761070a9036908701610631565b9260843590811161016e576107229036908701610691565b936001600160a01b038082169033821415806107ad575b610780578316156107695715610753576104b2955061151c565b604051626a0d4560e21b81525f81880152602490fd5b604051632bfa23e760e11b81525f81890152602490fd5b6040805163711bec9160e11b815233818b019081526001600160a01b038616602082015290918291010390fd5b505f82815260016020908152604080832033845290915290205460ff1615610739565b9081518082526020808093019301915f5b8281106107ef575050505090565b8351855293810193928101926001016107e1565b90602061053f9281815201906107d0565b3461016e57604036600319011261016e5760043567ffffffffffffffff80821161016e573660238301121561016e57816004013561085181610619565b9261085f604051948561029d565b8184526020916024602086019160051b8301019136831161016e57602401905b8282106108b8578560243586811161016e5761059b916108a66108ac923690600401610631565b90611037565b60405191829182610803565b8380916108c484610188565b81520191019061087f565b3461016e57604036600319011261016e576004356108eb610172565b6108f36111cd565b6001600160a01b0361090882821615156110f4565b825f52600460205260405f20541661094e5761092f6104b2925f52600460205260405f2090565b80546001600160a01b0319166001600160a01b03909216919091179055565b60405162461bcd60e51b815260206004820152602160248201527f4d61726b657420616c72656164792065786973747320666f72207468697320496044820152601160fa1b6064820152608490fd5b3461016e57606036600319011261016e576109b6610158565b67ffffffffffffffff60243581811161016e576109d7903690600401610631565b9060443590811161016e576109f0903690600401610631565b906001600160a01b0383163381141580610a63575b610a3c5715610a25576104b2925f604051610a1f8161027c565b526113bd565b604051626a0d4560e21b81525f6004820152602490fd5b60405163711bec9160e11b81523360048201526001600160a01b0385166024820152604490fd5b505f81815260016020908152604080832033845290915290205460ff1615610a05565b3461016e575f36600319011261016e57610a9e6111cd565b600380546001600160a01b031981169091555f906001600160a01b03167f8be0079c531659141344cd1fd0a4f28419497f9722a3daafe3b4186f6b6457e08280a3005b3461016e57608036600319011261016e57610afa610158565b6024359060643567ffffffffffffffff811161016e57610b1e903690600401610691565b5f838152600460205260409020549091906001600160a01b03163303610b4b576104b29260443591611266565b60405162461bcd60e51b815260206004820152603760248201527f4f6e6c79207468652050726564696374696f6e204d61726b657420636f6e747260448201527f6163742063616e206d696e74207468697320746f6b656e0000000000000000006064820152608490fd5b3461016e57604036600319011261016e576104b2610bd2610172565b610bda6111cd565b610bee6001600160a01b03821615156110f4565b6004355f52600460205260405f209060018060a01b03166bffffffffffffffffffffffff60a01b825416179055565b3461016e575f36600319011261016e576003546040516001600160a01b039091168152602090f35b3461016e57602036600319011261016e57600435610c616111cd565b5f818152600460205260409020546001600160a01b031615610c9a575f90815260046020526040902080546001600160a01b0319169055005b60405162461bcd60e51b815260206004820152601560248201527413585c9ad95d08191bd95cc81b9bdd08195e1a5cdd605a1b6044820152606490fd5b3461016e57602036600319011261016e576004355f526004602052602060018060a01b0360405f205416604051908152f35b3461016e57604036600319011261016e57610d22610158565b60243580151580820361016e576001600160a01b038316928315610dad57335f9081526001602090815260408083206001600160a01b039094168352929052209060ff801983541691161790557f17307eab39ab6107e8899845ad3d59bd9653f200f220920489ca2b5937696c3160405180610da8339482919091602081019215159052565b0390a3005b60405162ced3e160e81b81525f6004820152602490fd5b3461016e57604036600319011261016e57602060ff610e14610de4610158565b610dec610172565b6001600160a01b039182165f9081526001865260408082209290931681526020919091522090565b54166040519015158152f35b3461016e5760a036600319011261016e57610e39610158565b610e41610172565b906084359167ffffffffffffffff831161016e57610e666104b2933690600401610691565b916064359160443591611132565b3461016e57602036600319011261016e57610e8d610158565b610e956111cd565b6001600160a01b03908116908115610ee857600354826bffffffffffffffffffffffff60a01b821617600355167f8be0079c531659141344cd1fd0a4f28419497f9722a3daafe3b4186f6b6457e05f80a3005b604051631e4fbdf760e01b81525f6004820152602490fd5b3461016e57610f0e3661043f565b9190805f52600460205260018060a01b038060405f2054163303610f6c57821615610a25576104b292610f5e60405192600184526020840152604083019160018352606084015260808301604052565b915f604051610a1f8161027c565b60405162461bcd60e51b815260206004820152603760248201527f4f6e6c79207468652050726564696374696f6e204d61726b657420636f6e747260448201527f6163742063616e206275726e207468697320746f6b656e0000000000000000006064820152608490fd5b90600182811c92168015611005575b6020831014610ff157565b634e487b7160e01b5f52602260045260245ffd5b91607f1691610fe6565b80518210156110235760209160051b010190565b634e487b7160e01b5f52603260045260245ffd5b919091805183518082036110d257505080519061106c61105683610619565b92611064604051948561029d565b808452610619565b60209190601f190136848401375f5b81518110156110ca57600581901b8281018401519087018401515f908152602081815260408083206001600160a01b0390941683529290522054600191906110c3828761100f565b520161107b565b509193505050565b604051635b05999160e01b815260048101919091526024810191909152604490fd5b156110fb57565b60405162461bcd60e51b815260206004820152600f60248201526e496e76616c6964206164647265737360881b6044820152606490fd5b92939290916001600160a01b038083169033821415806111aa575b610a3c578416156111925715610a25576111909461118860405192600184526020840152604083019160018352606084015260808301604052565b92909161151c565b565b604051632bfa23e760e11b81525f6004820152602490fd5b505f82815260016020908152604080832033845290915290205460ff161561114d565b6003546001600160a01b031633036111e157565b60405163118cdaa760e01b8152336004820152602490fd5b601f8111611205575050565b60025f527f405787fa12a823e0f2b7631cc41b3ba8828b3321ca811111fa75cd3aa3bb5ace906020601f840160051c8301931061125c575b601f0160051c01905b818110611251575050565b5f8155600101611246565b909150819061123d565b6001600160a01b03811693929091908415611192576112a260405192600184526020840152604083019160018352606084015260808301604052565b9281518451908181036110d25750505f5b825181101561130d578060019160051b6113056112fd876112e8602080868b010151958c010151945f525f60205260405f2090565b9060018060a01b03165f5260205260405f2090565b91825461170a565b9055016112b3565b5092919360018251145f14611382576020828101518482015160408051928352928201525f9133917fc3d58168c5ae7397731d063d5bbf3d657854427343f4c083240f7aacaa2d0f629190a45b80516001036113785790602080611190959301519101519133611a05565b6111909333611810565b5f6040517f4a39dc06d4c0dbc64b70af90fd698a233a518aa5d07e595d983b8c0526c8f7fb3391806113b588888361172b565b0390a461135a565b92919080518251908181036110d25750505f5b815181101561147d57600581901b82810160209081015191850101516001600160a01b038716611405575b50506001016113d0565b61141a876112e8845f525f60205260405f2090565b5481811061144657876112e8600195949361143e9303935f525f60205260405f2090565b55905f6113fb565b6040516303dee4c560e01b81526001600160a01b038916600482015260248101919091526044810182905260648101839052608490fd5b50905f929391600181511484146114dd576020908101519181015160408051938452918301526001600160a01b039092169133917fc3d58168c5ae7397731d063d5bbf3d657854427343f4c083240f7aacaa2d0f6291819081015b0390a4565b6040516001600160a01b039093169233927f4a39dc06d4c0dbc64b70af90fd698a233a518aa5d07e595d983b8c0526c8f7fb9282916114d8918361172b565b9491909181518451908181036110d25750505f5b825181101561161557600581901b83810160209081015191870101516001600160a01b03929186908a8516611595575b6001948216611573575b50505001611530565b61158b916112e86112fd925f525f60205260405f2090565b90555f858161156a565b91929390506115af8a6112e8845f525f60205260405f2090565b548381106115de57918791846001969594036115d68d6112e8855f525f60205260405f2090565b559450611560565b6040516303dee4c560e01b81526001600160a01b038c16600482015260248101919091526044810184905260648101839052608490fd5b5094919392909360018551145f146116bf576020858101518382015160408051928352928201526001600160a01b03838116929086169133917fc3d58168c5ae7397731d063d5bbf3d657854427343f4c083240f7aacaa2d0f6291a45b6001600160a01b038116611688575b5050505050565b84516001036116ae576020806116a49601519201519233611a3a565b5f80808080611681565b6116ba94919233611909565b6116a4565b6040516001600160a01b03828116919085169033907f4a39dc06d4c0dbc64b70af90fd698a233a518aa5d07e595d983b8c0526c8f7fb9080611702888c8361172b565b0390a4611672565b9190820180921161171757565b634e487b7160e01b5f52601160045260245ffd5b909161174261053f936040845260408401906107d0565b9160208184039101526107d0565b9081602091031261016e575161053f816101e8565b9261179361053f95936117a19360018060a01b031686525f602087015260a0604087015260a08601906107d0565b9084820360608601526107d0565b9160808184039101526104f0565b939061053f9593611793916117a19460018060a01b03809216885216602087015260a0604087015260a08601906107d0565b3d1561180b573d906117f2826102bf565b91611800604051938461029d565b82523d5f602084013e565b606090565b9293919093843b611822575050505050565b602091611845604051948593849363bc197c8160e01b9889865260048601611765565b03815f6001600160a01b0388165af15f91816118d8575b5061189b578261186a6117e1565b805191908261189457604051632bfa23e760e11b81526001600160a01b0383166004820152602490fd5b9050602001fd5b6001600160e01b031916036118b557505f80808080611681565b604051632bfa23e760e11b81526001600160a01b03919091166004820152602490fd5b6118fb91925060203d602011611902575b6118f3818361029d565b810190611750565b905f61185c565b503d6118e9565b939290949194853b61191e575b505050505050565b611941602093604051958694859463bc197c8160e01b998a8752600487016117af565b03815f6001600160a01b0388165af15f9181611981575b50611966578261186a6117e1565b6001600160e01b031916036118b557505f8080808080611916565b61199b91925060203d602011611902576118f3818361029d565b905f611958565b909260a09261053f9594600180861b031683525f60208401526040830152606082015281608082015201906104f0565b919261053f95949160a094600180871b0380921685521660208401526040830152606082015281608082015201906104f0565b9293919093843b611a17575050505050565b602091611845604051948593849363f23a6e6160e01b98898652600486016119a2565b939290949194853b611a4e57505050505050565b611941602093604051958694859463f23a6e6160e01b998a8752600487016119d256fea264697066735822122058fba0bf8617bf199d567f91883b0eb30fae2289110425d66355332bbd701ed364736f6c63430008180033",
  "linkReferences": {},
  "deployedLinkReferences": {}
}