{
  "_format": "hh-sol-artifact-1",
  "contractName": "PredictionMarket",
  "sourceName": "contracts/PredictionMarket.sol",
  "abi": [
    {
      "inputs": [
        {
          "internalType": "address",
          "name": "_priceToken",
          "type": "address"
        },
        {
          "internalType": "address",
          "name": "_yesToken",
          "type": "address"
        },
        {
          "internalType": "address",
          "name": "_noToken",
          "type": "address"
        },
        {
          "internalType": "uint256",
          "name": "_marketId",
          "type": "uint256"
        },
        {
          "internalType": "string",
          "name": "_question",
          "type": "string"
        },
        {
          "internalType": "uint256",
          "name": "_endtime",
          "type": "uint256"
        },
        {
          "internalType": "address",
          "name": "_creator",
          "type": "address"
        }
      ],
      "stateMutability": "nonpayable",
      "type": "constructor"
    },
    {
      "inputs": [],
      "name": "EnforcedPause",
      "type": "error"
    },
    {
      "inputs": [],
      "name": "ExpectedPause",
      "type": "error"
    },
    {
      "inputs": [
        {
          "internalType": "address",
          "name": "owner",
          "type": "address"
        }
      ],
      "name": "OwnableInvalidOwner",
      "type": "error"
    },
    {
      "inputs": [
        {
          "internalType": "address",
          "name": "account",
          "type": "address"
        }
      ],
      "name": "OwnableUnauthorizedAccount",
      "type": "error"
    },
    {
      "inputs": [
        {
          "internalType": "uint256",
          "name": "x",
          "type": "uint256"
        },
        {
          "internalType": "uint256",
          "name": "y",
          "type": "uint256"
        }
      ],
      "name": "PRBMath_MulDiv18_Overflow",
      "type": "error"
    },
    {
      "inputs": [
        {
          "internalType": "uint256",
          "name": "x",
          "type": "uint256"
        },
        {
          "internalType": "uint256",
          "name": "y",
          "type": "uint256"
        },
        {
          "internalType": "uint256",
          "name": "denominator",
          "type": "uint256"
        }
      ],
      "name": "PRBMath_MulDiv_Overflow",
      "type": "error"
    },
    {
      "inputs": [
        {
          "internalType": "UD60x18",
          "name": "x",
          "type": "uint256"
        }
      ],
      "name": "PRBMath_UD60x18_Exp2_InputTooBig",
      "type": "error"
    },
    {
      "inputs": [
        {
          "internalType": "UD60x18",
          "name": "x",
          "type": "uint256"
        }
      ],
      "name": "PRBMath_UD60x18_Exp_InputTooBig",
      "type": "error"
    },
    {
      "inputs": [
        {
          "internalType": "UD60x18",
          "name": "x",
          "type": "uint256"
        }
      ],
      "name": "PRBMath_UD60x18_Log_InputTooSmall",
      "type": "error"
    },
    {
      "inputs": [],
      "name": "ReentrancyGuardReentrantCall",
      "type": "error"
    },
    {
      "inputs": [
        {
          "internalType": "address",
          "name": "token",
          "type": "address"
        }
      ],
      "name": "SafeERC20FailedOperation",
      "type": "error"
    },
    {
      "anonymous": false,
      "inputs": [
        {
          "indexed": true,
          "internalType": "address",
          "name": "owner",
          "type": "address"
        },
        {
          "indexed": true,
          "internalType": "uint256",
          "name": "marketId",
          "type": "uint256"
        },
        {
          "indexed": false,
          "internalType": "uint256",
          "name": "amount",
          "type": "uint256"
        }
      ],
      "name": "EmergencyLiquidityAdded",
      "type": "event"
    },
    {
      "anonymous": false,
      "inputs": [
        {
          "indexed": true,
          "internalType": "address",
          "name": "provider",
          "type": "address"
        },
        {
          "indexed": true,
          "internalType": "uint256",
          "name": "marketId",
          "type": "uint256"
        },
        {
          "indexed": false,
          "internalType": "uint256",
          "name": "amount",
          "type": "uint256"
        }
      ],
      "name": "LiquidityAdded",
      "type": "event"
    },
    {
      "anonymous": false,
      "inputs": [
        {
          "indexed": true,
          "internalType": "uint256",
          "name": "marketId",
          "type": "uint256"
        },
        {
          "indexed": false,
          "internalType": "bool",
          "name": "result",
          "type": "bool"
        },
        {
          "indexed": false,
          "internalType": "uint256",
          "name": "totalPriceToken",
          "type": "uint256"
        }
      ],
      "name": "MarketResolved",
      "type": "event"
    },
    {
      "anonymous": false,
      "inputs": [
        {
          "indexed": true,
          "internalType": "address",
          "name": "previousOwner",
          "type": "address"
        },
        {
          "indexed": true,
          "internalType": "address",
          "name": "newOwner",
          "type": "address"
        }
      ],
      "name": "OwnershipTransferred",
      "type": "event"
    },
    {
      "anonymous": false,
      "inputs": [
        {
          "indexed": false,
          "internalType": "address",
          "name": "account",
          "type": "address"
        }
      ],
      "name": "Paused",
      "type": "event"
    },
    {
      "anonymous": false,
      "inputs": [
        {
          "indexed": true,
          "internalType": "address",
          "name": "user",
          "type": "address"
        },
        {
          "indexed": true,
          "internalType": "uint256",
          "name": "marketId",
          "type": "uint256"
        },
        {
          "indexed": false,
          "internalType": "uint256",
          "name": "rewardAmount",
          "type": "uint256"
        }
      ],
      "name": "RewardClaimed",
      "type": "event"
    },
    {
      "anonymous": false,
      "inputs": [
        {
          "indexed": true,
          "internalType": "address",
          "name": "user",
          "type": "address"
        },
        {
          "indexed": true,
          "internalType": "uint256",
          "name": "marketId",
          "type": "uint256"
        },
        {
          "indexed": false,
          "internalType": "uint8",
          "name": "opType",
          "type": "uint8"
        },
        {
          "indexed": false,
          "internalType": "uint8",
          "name": "tokenType",
          "type": "uint8"
        },
        {
          "indexed": false,
          "internalType": "uint256",
          "name": "amount",
          "type": "uint256"
        },
        {
          "indexed": false,
          "internalType": "uint256",
          "name": "cost",
          "type": "uint256"
        }
      ],
      "name": "TokenOperation",
      "type": "event"
    },
    {
      "anonymous": false,
      "inputs": [
        {
          "indexed": false,
          "internalType": "address",
          "name": "account",
          "type": "address"
        }
      ],
      "name": "Unpaused",
      "type": "event"
    },
    {
      "inputs": [
        {
          "internalType": "uint256",
          "name": "amount",
          "type": "uint256"
        }
      ],
      "name": "addLiquidity",
      "outputs": [],
      "stateMutability": "nonpayable",
      "type": "function"
    },
    {
      "inputs": [
        {
          "internalType": "bool",
          "name": "isYesToken",
          "type": "bool"
        },
        {
          "internalType": "UD60x18",
          "name": "amount",
          "type": "uint256"
        }
      ],
      "name": "buy",
      "outputs": [],
      "stateMutability": "nonpayable",
      "type": "function"
    },
    {
      "inputs": [],
      "name": "claimReward",
      "outputs": [],
      "stateMutability": "nonpayable",
      "type": "function"
    },
    {
      "inputs": [
        {
          "internalType": "address",
          "name": "token",
          "type": "address"
        },
        {
          "internalType": "uint256",
          "name": "amount",
          "type": "uint256"
        }
      ],
      "name": "emergencyWithdraw",
      "outputs": [],
      "stateMutability": "nonpayable",
      "type": "function"
    },
    {
      "inputs": [
        {
          "internalType": "address",
          "name": "account",
          "type": "address"
        }
      ],
      "name": "getBalances",
      "outputs": [
        {
          "internalType": "uint256",
          "name": "priceTokenBalance",
          "type": "uint256"
        },
        {
          "internalType": "uint256",
          "name": "yesTokenBalance",
          "type": "uint256"
        },
        {
          "internalType": "uint256",
          "name": "noTokenBalance",
          "type": "uint256"
        }
      ],
      "stateMutability": "view",
      "type": "function"
    },
    {
      "inputs": [
        {
          "internalType": "bool",
          "name": "isYesToken",
          "type": "bool"
        },
        {
          "internalType": "UD60x18",
          "name": "amount",
          "type": "uint256"
        }
      ],
      "name": "getCost",
      "outputs": [
        {
          "internalType": "UD60x18",
          "name": "price",
          "type": "uint256"
        }
      ],
      "stateMutability": "view",
      "type": "function"
    },
    {
      "inputs": [],
      "name": "getMarketState",
      "outputs": [
        {
          "components": [
            {
              "internalType": "uint256",
              "name": "id",
              "type": "uint256"
            },
            {
              "internalType": "string",
              "name": "question",
              "type": "string"
            },
            {
              "internalType": "uint256",
              "name": "endTime",
              "type": "uint256"
            },
            {
              "internalType": "uint256",
              "name": "totalStaked",
              "type": "uint256"
            },
            {
              "internalType": "uint256",
              "name": "totalYes",
              "type": "uint256"
            },
            {
              "internalType": "uint256",
              "name": "totalNo",
              "type": "uint256"
            },
            {
              "internalType": "bool",
              "name": "resolved",
              "type": "bool"
            },
            {
              "internalType": "bool",
              "name": "won",
              "type": "bool"
            },
            {
              "internalType": "uint256",
              "name": "totalPriceToken",
              "type": "uint256"
            }
          ],
          "internalType": "struct PredictionMarket.Market",
          "name": "marketState",
          "type": "tuple"
        }
      ],
      "stateMutability": "view",
      "type": "function"
    },
    {
      "inputs": [
        {
          "internalType": "bool",
          "name": "isYesToken",
          "type": "bool"
        }
      ],
      "name": "getTokenPrice",
      "outputs": [
        {
          "internalType": "UD60x18",
          "name": "price",
          "type": "uint256"
        }
      ],
      "stateMutability": "view",
      "type": "function"
    },
    {
      "inputs": [],
      "name": "getTokenQuantities",
      "outputs": [
        {
          "internalType": "UD60x18",
          "name": "yesQuantity",
          "type": "uint256"
        },
        {
          "internalType": "UD60x18",
          "name": "noQuantity",
          "type": "uint256"
        }
      ],
      "stateMutability": "view",
      "type": "function"
    },
    {
      "inputs": [],
      "name": "initializeLiquidity",
      "outputs": [],
      "stateMutability": "nonpayable",
      "type": "function"
    },
    {
      "inputs": [],
      "name": "market",
      "outputs": [
        {
          "internalType": "uint256",
          "name": "id",
          "type": "uint256"
        },
        {
          "internalType": "string",
          "name": "question",
          "type": "string"
        },
        {
          "internalType": "uint256",
          "name": "endTime",
          "type": "uint256"
        },
        {
          "internalType": "uint256",
          "name": "totalStaked",
          "type": "uint256"
        },
        {
          "internalType": "uint256",
          "name": "totalYes",
          "type": "uint256"
        },
        {
          "internalType": "uint256",
          "name": "totalNo",
          "type": "uint256"
        },
        {
          "internalType": "bool",
          "name": "resolved",
          "type": "bool"
        },
        {
          "internalType": "bool",
          "name": "won",
          "type": "bool"
        },
        {
          "internalType": "uint256",
          "name": "totalPriceToken",
          "type": "uint256"
        }
      ],
      "stateMutability": "view",
      "type": "function"
    },
    {
      "inputs": [],
      "name": "noToken",
      "outputs": [
        {
          "internalType": "contract NoToken",
          "name": "",
          "type": "address"
        }
      ],
      "stateMutability": "view",
      "type": "function"
    },
    {
      "inputs": [
        {
          "internalType": "address",
          "name": "",
          "type": "address"
        },
        {
          "internalType": "address",
          "name": "",
          "type": "address"
        },
        {
          "internalType": "uint256[]",
          "name": "",
          "type": "uint256[]"
        },
        {
          "internalType": "uint256[]",
          "name": "",
          "type": "uint256[]"
        },
        {
          "internalType": "bytes",
          "name": "",
          "type": "bytes"
        }
      ],
      "name": "onERC1155BatchReceived",
      "outputs": [
        {
          "internalType": "bytes4",
          "name": "",
          "type": "bytes4"
        }
      ],
      "stateMutability": "nonpayable",
      "type": "function"
    },
    {
      "inputs": [
        {
          "internalType": "address",
          "name": "",
          "type": "address"
        },
        {
          "internalType": "address",
          "name": "",
          "type": "address"
        },
        {
          "internalType": "uint256",
          "name": "",
          "type": "uint256"
        },
        {
          "internalType": "uint256",
          "name": "",
          "type": "uint256"
        },
        {
          "internalType": "bytes",
          "name": "",
          "type": "bytes"
        }
      ],
      "name": "onERC1155Received",
      "outputs": [
        {
          "internalType": "bytes4",
          "name": "",
          "type": "bytes4"
        }
      ],
      "stateMutability": "nonpayable",
      "type": "function"
    },
    {
      "inputs": [],
      "name": "owner",
      "outputs": [
        {
          "internalType": "address",
          "name": "",
          "type": "address"
        }
      ],
      "stateMutability": "view",
      "type": "function"
    },
    {
      "inputs": [],
      "name": "pause",
      "outputs": [],
      "stateMutability": "nonpayable",
      "type": "function"
    },
    {
      "inputs": [],
      "name": "paused",
      "outputs": [
        {
          "internalType": "bool",
          "name": "",
          "type": "bool"
        }
      ],
      "stateMutability": "view",
      "type": "function"
    },
    {
      "inputs": [],
      "name": "priceToken",
      "outputs": [
        {
          "internalType": "contract IERC20",
          "name": "",
          "type": "address"
        }
      ],
      "stateMutability": "view",
      "type": "function"
    },
    {
      "inputs": [],
      "name": "qNo",
      "outputs": [
        {
          "internalType": "UD60x18",
          "name": "",
          "type": "uint256"
        }
      ],
      "stateMutability": "view",
      "type": "function"
    },
    {
      "inputs": [],
      "name": "qYes",
      "outputs": [
        {
          "internalType": "UD60x18",
          "name": "",
          "type": "uint256"
        }
      ],
      "stateMutability": "view",
      "type": "function"
    },
    {
      "inputs": [],
      "name": "renounceOwnership",
      "outputs": [],
      "stateMutability": "nonpayable",
      "type": "function"
    },
    {
      "inputs": [
        {
          "internalType": "bool",
          "name": "isYesWon",
          "type": "bool"
        }
      ],
      "name": "resolve",
      "outputs": [],
      "stateMutability": "nonpayable",
      "type": "function"
    },
    {
      "inputs": [],
      "name": "resolver",
      "outputs": [
        {
          "internalType": "address",
          "name": "",
          "type": "address"
        }
      ],
      "stateMutability": "view",
      "type": "function"
    },
    {
      "inputs": [
        {
          "internalType": "bool",
          "name": "isYesToken",
          "type": "bool"
        },
        {
          "internalType": "UD60x18",
          "name": "amount",
          "type": "uint256"
        }
      ],
      "name": "sell",
      "outputs": [],
      "stateMutability": "nonpayable",
      "type": "function"
    },
    {
      "inputs": [
        {
          "internalType": "address",
          "name": "newResolver",
          "type": "address"
        }
      ],
      "name": "setResolver",
      "outputs": [],
      "stateMutability": "nonpayable",
      "type": "function"
    },
    {
      "inputs": [
        {
          "internalType": "bytes4",
          "name": "interfaceId",
          "type": "bytes4"
        }
      ],
      "name": "supportsInterface",
      "outputs": [
        {
          "internalType": "bool",
          "name": "",
          "type": "bool"
        }
      ],
      "stateMutability": "view",
      "type": "function"
    },
    {
      "inputs": [
        {
          "internalType": "address",
          "name": "newOwner",
          "type": "address"
        }
      ],
      "name": "transferOwnership",
      "outputs": [],
      "stateMutability": "nonpayable",
      "type": "function"
    },
    {
      "inputs": [],
      "name": "unpause",
      "outputs": [],
      "stateMutability": "nonpayable",
      "type": "function"
    },
    {
      "inputs": [],
      "name": "yesToken",
      "outputs": [
        {
          "internalType": "contract YesToken",
          "name": "",
          "type": "address"
        }
      ],
      "stateMutability": "view",
      "type": "function"
    }
  ],
  "bytecode": "0x604060c0815234620004d05762003038803803806200001e81620004d4565b928339810160e082820312620004d0576200003982620004fa565b916020926200004a848301620004fa565b9162000058868201620004fa565b9460608201519160808101519360018060401b0394858111620004d057820190601f98888a84011215620004d0578251878111620003a657601f1993620000a5828d0186168801620004d4565b9a828c52878383010111620004d0579086915f5b828110620004bb5750505f908b019091015260a0840151936001600160a01b039291908390620000ec9060c001620004fa565b16928315620004a457908c92915f5490858160018060a01b03199682888616175f555193167f8be0079c531659141344cd1fd0a4f28419497f9722a3daafe3b4186f6b6457e05f80a360019b8c8055600254925f600e555f600f558286161562000462575081169283156200042a5716928315620003f25742881115620003ba57670de0b6b3a7640000608052678ac7230489e8000060a052610100600160a81b039060081b169060018060a81b03191617600255826003541617600355816004541617600455600554161760055588519461012086019686881082891117620003a6575f998a998a998d5287895280878a01528c890195865260608901968a885260808a01988b8a5261010060a08c019b8d8d5260c081019d8e5260e081019e8f52019d8e526006558151948511620003a6576007548481811c911680156200039b575b8282101462000387578381116200033e575b5080928511600114620002d75750839450908392915f94620002cb575b50501b915f199060031b1c1916176007555b516008555160095551600a5551600b555115159060ff61ff00600c549251151560081b1692169061ffff19161717600c5551600d5551612b28908162000510823960805181505060a05181818161129f0152611d0d0152f35b015192505f8062000260565b92948490811660075f52845f20945f905b888383106200032357505050106200030a575b505050811b0160075562000272565b01515f1960f88460031b161c191690555f8080620002fb565b858701518855909601959485019487935090810190620002e8565b60075f52815f208480880160051c8201928489106200037d575b0160051c019085905b8281106200037157505062000243565b5f815501859062000361565b9250819262000358565b634e487b7160e01b5f52602260045260245ffd5b90607f169062000231565b634e487b7160e01b5f52604160045260245ffd5b508d5162461bcd60e51b815260048101899052601060248201526f496e76616c696420656e642074696d6560801b6044820152606490fd5b508d5162461bcd60e51b815260048101899052601060248201526f24b73b30b634b2103737903a37b5b2b760811b6044820152606490fd5b8f5162461bcd60e51b8152600481018b9052601160248201527024b73b30b634b2103cb2b9903a37b5b2b760791b6044820152606490fd5b62461bcd60e51b8152600481018b9052601360248201527f496e76616c696420707269636520746f6b656e000000000000000000000000006044820152606490fd5b8c51631e4fbdf760e01b81525f6004820152602490fd5b818101840151818e01850152889301620000b9565b5f80fd5b6040519190601f01601f191682016001600160401b03811183821017620003a657604052565b51906001600160a01b0382168203620004d05756fe6080604081815260049081361015610015575f80fd5b5f925f3560e01c90816301ffc9a7146119355750806304f3bcec1461190d5780630bede3f81461175f57806311a9f10a146117385780632acf1cd21461171a5780632ff6fe76146116ee5780633f4ba83a146116875780634e543b26146115fd57806351c6590a146114945780635bea24101461146f5780635c975abb1461144b578063715018a6146113f257806380f556051461136e5780638456cb59146113135780638b74b9ab146112775780638da5cb5b1461124f57806395ccea6714611202578063a4d75065146111d2578063b88a802f14610e9c578063bc197c8114610e15578063bf4bdb2714610c43578063bfc5960114610c24578063c84aae1714610a73578063d816574314610955578063e24c469b146105d9578063f0d9bb20146105ac578063f23a6e6114610553578063f2fde38b146104c55763f571c5f314610160575f80fd5b346104c157806003193601126104c15761017861196a565b9160243561018b60ff600c541615611bef565b6101986008544210611c30565b6101a061281b565b6101a861283e565b6101b3811515611cb1565b6101c66001600160801b03821115611e01565b846101d18286611cfc565b92851561042b576003546006548651627eeac760e11b815233848201908152602080820193909352909283918290036040019082906001600160a01b03165afa9081156104215790849184916103e2575b509061022f911015611ed9565b85156103bf5761024183600e54611f1c565b600e5561025083600a54611f1c565b600a555b61026083600954611f1c565b6009558515610356576003546006546001600160a01b0390911691823b15610352576102a99284928387938a5196879586948593637921219560e11b8552309033908601611ea6565b03925af1801561034857610330575b50505b6002546102d7908390339060081c6001600160a01b03166127da565b6006549315610328576001925b60ff8151946002865216602085015283015260608201527ff812a30160cd1fb46386678219b1c28ddc923c9b3a18805e38c090fd7b41bb7160803392a36001805580f35b6002926102e4565b610339906119a5565b61034457845f6102b8565b8480fd5b85513d84823e3d90fd5b8380fd5b80546006546001600160a01b0390911691823b15610352576103959284928387938a5196879586948593637921219560e11b8552309033908601611ea6565b03925af18015610348576103ab575b50506102bb565b6103b4906119a5565b61034457845f6103a4565b6103cb83600f54611f1c565b600f556103da83600b54611f1c565b600b55610254565b935050506020823d602011610419575b816103ff602093836119ea565b810103126104155761022f838893519091610222565b5f80fd5b3d91506103f2565b86513d85823e3d90fd5b80546006548651627eeac760e11b815233818501908152602080820193909352909283918290036040019082906001600160a01b03165afa908115610421579084918491610486575b5090610481911015611ed9565b61022f565b935050506020823d6020116104b9575b816104a3602093836119ea565b8101031261041557610481838893519091610474565b3d9150610496565b8280fd5b5090346104c15760203660031901126104c1576104e0611979565b906104e9611f29565b6001600160a01b0391821692831561053d5750505f54826bffffffffffffffffffffffff60a01b8216175f55167f8be0079c531659141344cd1fd0a4f28419497f9722a3daafe3b4186f6b6457e05f80a380f35b51631e4fbdf760e01b8152908101849052602490fd5b5082346105a95760a03660031901126105a95761056e611979565b5061057761198f565b506084359067ffffffffffffffff82116105a9575060209261059b91369101611b99565b505163f23a6e6160e01b8152f35b80fd5b8382346105d557816003193601126105d55760035490516001600160a01b039091168152602090f35b5080fd5b50346104c157806003193601126104c1576105f261196a565b9160243561060560ff600c541615611bef565b6106126008544210611c30565b61061a61281b565b61062261283e565b61062d811515611cb1565b6106406001600160801b03821115611e01565b61064a8185611cfc565b9184156108c7576003546006548551627eeac760e11b815230848201908152602080820193909352909283918290036040019082906001600160a01b03165afa80156108bd5783908890610887575b6106a592501015611e40565b60025484516323b872dd60e01b6020820152336024820152306044820152606480820186905281526001600160a01b039160081c821660a0820167ffffffffffffffff811183821017610874578752889392916107019161290a565b86156108515761071384600e54611e85565b600e5561072284600a54611e85565b600a555b61073284600954611e85565b60095586156107f157600354169060065490823b15610352576107729284928387938a5196879586948593637921219560e11b8552339030908601611ea6565b03925af18015610348576107dd575b50505b60065493156107d5576001925b60ff8151946001865216602085015283015260608201527ff812a30160cd1fb46386678219b1c28ddc923c9b3a18805e38c090fd7b41bb7160803392a36001805580f35b600292610791565b6107e6906119a5565b61034457845f610781565b8154169060065490823b15610352576108279284928387938a5196879586948593637921219560e11b8552339030908601611ea6565b03925af180156103485761083d575b5050610784565b610846906119a5565b61034457845f610836565b61085d84600f54611e85565b600f5561086c84600b54611e85565b600b55610726565b604185634e487b7160e01b5f525260245ffd5b50506020813d6020116108b5575b816108a2602093836119ea565b8101031261041557826106a59151610699565b3d9150610895565b85513d89823e3d90fd5b80546006548551627eeac760e11b815230818501908152602080820193909352909283918290036040019082906001600160a01b03165afa80156108bd578390889061091f575b61091a92501015611e40565b6106a5565b50506020813d60201161094d575b8161093a602093836119ea565b81010312610415578261091a915161090e565b3d915061092d565b5082346105a957806003193601126105a957815190610973826119cd565b8082526060602083015280838301528060608301528060808301528060a08301528060c08301528060e0830152610100809201528151906109b3826119cd565b60065482526109c0611a0c565b9260208301938452600854918184019283526009549060608501918252600a5460808601908152600b549060a08701918252600c549160c088019160ff84161515835260ff60e08a019460081c1615158452600d5495858a01968752610a4288519b8c9b60208d525160208d015251610120809a8d01526101408c0190611af4565b985160608b01525160808a01525160a08901525160c088015251151560e08701525115159085015251908301520390f35b5091346105a957602092836003193601126105d55760249293610a94611979565b60025483516370a0823160e01b81526001600160a01b0383811689830152909690939182918891829060081c87165afa958615610c1a578596610beb575b506003546006548551627eeac760e11b8082526001600160a01b0386168b830190815260208101849052929a9195939092859187918290036040019082908a165afa948515610be1578895610bb1575b5083949581541691610b5488519b8c95869485948552840160209093929193604081019460018060a01b031681520152565b03915afa938415610ba65793610b76575b606095508251948552840152820152f35b80935085813d8311610b9f575b610b8d81836119ea565b81010312610415576060945192610b65565b503d610b83565b8351903d90823e3d90fd5b9380955084813d8311610bda575b610bc981836119ea565b810103126104155784935194610b22565b503d610bbf565b87513d8a823e3d90fd5b9080965081813d8311610c13575b610c0381836119ea565b810103126104155751945f610ad2565b503d610bf9565b84513d87823e3d90fd5b8382346105d557816003193601126105d557602090600e549051908152f35b509190346105d557816003193601126105d557610c6560ff600c541615611bef565b610c726008544210611c30565b610c7a61281b565b610c8261283e565b600e541580610e0b575b15610dc8576003546006549293849390916001600160a01b03908116803b15610da6578584518092818381610cfd63731133e960e01b998a8352308d8401909160a092600180851b031682526020820152683635c9adc5dea000006040820152608060608201525f60808201520190565b03925af18015610dbe57908691610daa575b505083541660065490803b15610da6578351928352309483019485526020850191909152683635c9adc5dea0000060408501526080606085018190525f9085015290928491849182908490829060a00103925af1908115610d9d5750610d89575b50683635c9adc5dea0000080600e55600f556001805580f35b610d92906119a5565b6105a957805f610d70565b513d84823e3d90fd5b8580fd5b610db3906119a5565b61034457845f610d0f565b84513d88823e3d90fd5b606490602084519162461bcd60e51b8352820152601d60248201527f4c697175696469747920616c726561647920696e697469616c697a65640000006044820152fd5b50600f5415610c8c565b5082346105a95760a03660031901126105a957610e30611979565b50610e3961198f565b5067ffffffffffffffff906044358281116105d557610e5b9036908601611b32565b506064358281116105d557610e739036908601611b32565b506084359182116105a95750602092610e8e91369101611b99565b505163bc197c8160e01b8152f35b5090346104c157826003193601126104c157610eb661281b565b610ebe61283e565b60ff600c54610ece828216611c6f565b60081c1680156111c957600a54905b81156111935715611114576003546006548451627eeac760e11b815233858201908152602080820193909352909283918290036040019082906001600160a01b03165afa908115610c1a5785916110e2575b50905b811561109f57600d54808302908382040361108c57859291610f5391611de3565b9260018060a01b03610f6e858260025460081c1633906127da565b600c5460081c60ff161561102257600354169160065492803b15610344578651637a94c56560e11b81523393810193845260208401949094526040830191909152839183919082908490829060600103925af1801561101857611004575b50505b60065491519081527ff01da32686223933d8a18a391060918c7f11a3648639edd87ae013e2e273174360203392a36001805580f35b61100d906119a5565b6104c157825f610fcc565b84513d84823e3d90fd5b8154169160065492803b15610344578651637a94c56560e11b81523393810193845260208401949094526040830191909152839183919082908490829060600103925af1801561101857611078575b5050610fcf565b611081906119a5565b6104c157825f611071565b634e487b7160e01b865260118452602486fd5b835162461bcd60e51b8152602081850152601f60248201527f4e6f20746f6b656e732068656c6420746f20636c61696d2072657761726473006044820152606490fd5b90506020813d60201161110c575b816110fd602093836119ea565b8101031261041557515f610f2f565b3d91506110f0565b81546006548451627eeac760e11b815233818601908152602080820193909352909283918290036040019082906001600160a01b03165afa908115610c1a578591611161575b5090610f32565b90506020813d60201161118b575b8161117c602093836119ea565b8101031261041557515f61115a565b3d915061116f565b835162461bcd60e51b8152602081850152601060248201526f4e6f2077696e6e696e67207374616b6560801b6044820152606490fd5b600b5490610edd565b8382346105d557806003193601126105d5576020906111fb6111f261196a565b60243590611cfc565b9051908152f35b8382346105d5573660031901126105a95761124c61121e611979565b611226611f29565b61123460ff600c5416611c6f565b8254602435916001600160a01b0391821691166127da565b80f35b8382346105d557816003193601126105d557905490516001600160a01b039091168152602090f35b8382346105d55760203660031901126105d5576111fb60209261129861196a565b9050600e547f0000000000000000000000000000000000000000000000000000000000000000906112d16112cc838361285c565b611f54565b6112eb600f54916112e56112cc868561285c565b90611e85565b931561130457506112ff916112cc9161285c565b61285c565b6112cc9150916112ff9261285c565b8382346105d557816003193601126105d55760207f62e78cea01bee320cd4e420270b5ea74000d11b0c9f74754ebdbfc544b05a25891611351611f29565b61135961283e565b600160ff19600254161760025551338152a180f35b5082346105a957806003193601126105a9575060065461138c611a0c565b9160085460ff600954600a54600b5490600c5492600d54956113c088519a8b9a610120908c528060208d01528b0190611af4565b978901526060880152608087015260a0860152818116151560c086015260081c16151560e08401526101008301520390f35b83346105a957806003193601126105a95761140b611f29565b5f80546001600160a01b0319811682556001600160a01b03167f8be0079c531659141344cd1fd0a4f28419497f9722a3daafe3b4186f6b6457e08280a380f35b8382346105d557816003193601126105d55760209060ff6002541690519015158152f35b5082346105a957806003193601126105a95750600e54600f5482519182526020820152f35b509034610415576020366003190112610415578035906114b2611f29565b6114c160ff600c541615611bef565b6114ce6008544210611c30565b600354600654906001600160a01b03908116803b15610415575f8651809281838161152c8b63731133e960e01b9a8b8452308d85019160a09391600180861b0316835260208301526040820152608060608201525f60808201520190565b03925af180156115f3576115dc575b509082918693541660065490803b15610344578651928352309383019384526020840191909152604083018590526080606084018190525f9084015290918391839182908490829060a00103925af18015611018576115c8575b505060065491519081527f887347ac04562534273a2a8207259a0bb181c3c071511421f05370ad9e66266960203392a380f35b6115d1906119a5565b6104c157825f611595565b6115e991939296506119a5565b5f9490915f61153b565b86513d5f823e3d90fd5b50903461041557602036600319011261041557611618611979565b611620611f29565b6001600160a01b031691821561164457600580546001600160a01b03191684179055005b906020606492519162461bcd60e51b8352820152601860248201527f496e76616c6964207265736f6c766572206164647265737300000000000000006044820152fd5b5034610415575f366003190112610415576116a0611f29565b6002549160ff8316156116e0577f5db9ee0a495bf2e6ff9c91a7834c1ba4fdd244a5e8aa4e537bd38aeae4b073aa6020838560ff191660025551338152a1005b9051638dfc202b60e01b8152fd5b5034610415575f36600319011261041557600254905160089190911c6001600160a01b03168152602090f35b5034610415575f36600319011261041557602090600f549051908152f35b5034610415575f36600319011261041557905490516001600160a01b039091168152602090f35b50903461041557602091826003193601126104155761177c61196a565b6005546001600160a01b039190821633036118be57600c549060ff821661187b57859161ff00600192151560081b169061ffff191617179182600c5560025460081c169360248451809681936370a0823160e01b835230908301525afa8015611871575f90611824575b7f6d4d544f5a6dcf38d77a232d3ef7358625c74877a1ad954fcb507872e7a05eaf935080600d556006549460ff84519360081c1615158352820152a2005b508383813d831161186a575b61183a81836119ea565b81010312610415577f6d4d544f5a6dcf38d77a232d3ef7358625c74877a1ad954fcb507872e7a05eaf92516117e6565b503d611830565b82513d5f823e3d90fd5b835162461bcd60e51b8152808601879052601760248201527f4d61726b657420616c7265616479207265736f6c7665640000000000000000006044820152606490fd5b825162461bcd60e51b81528085018690526024808201527f4f6e6c79207265736f6c7665722063616e2063616c6c20746869732066756e636044820152633a34b7b760e11b6064820152608490fd5b5034610415575f3660031901126104155760055490516001600160a01b039091168152602090f35b833461041557602036600319011261041557359063ffffffff60e01b821680920361041557602091630271189760e51b148152f35b60043590811515820361041557565b600435906001600160a01b038216820361041557565b602435906001600160a01b038216820361041557565b67ffffffffffffffff81116119b957604052565b634e487b7160e01b5f52604160045260245ffd5b610120810190811067ffffffffffffffff8211176119b957604052565b90601f8019910116810190811067ffffffffffffffff8211176119b957604052565b604051905f600754906001908260011c60018416928315611aea575b6020948583108514611ad6578288528794908115611ab65750600114611a59575b5050611a57925003836119ea565b565b9093915060075f527fa66cc928b5edb82af9bd49922954155ab7b0942694bea4ce44661d9a8736c688935f915b818310611a9e575050611a5793508201015f80611a49565b85548884018501529485019487945091830191611a86565b915050611a5794925060ff191682840152151560051b8201015f80611a49565b634e487b7160e01b5f52602260045260245ffd5b90607f1690611a28565b91908251928382525f5b848110611b1e575050825f602080949584010152601f8019910116010190565b602081830181015184830182015201611afe565b81601f820112156104155780359160209167ffffffffffffffff84116119b9578360051b9060405194611b67858401876119ea565b85528380860192820101928311610415578301905b828210611b8a575050505090565b81358152908301908301611b7c565b81601f820112156104155780359067ffffffffffffffff82116119b95760405192611bce601f8401601f1916602001856119ea565b8284526020838301011161041557815f926020809301838601378301015290565b15611bf657565b60405162461bcd60e51b815260206004820152601260248201527113585c9ad95d081a5cc81c995cdbdb1d995960721b6044820152606490fd5b15611c3757565b60405162461bcd60e51b815260206004820152601060248201526f13585c9ad95d081a185cc8195b99195960821b6044820152606490fd5b15611c7657565b60405162461bcd60e51b815260206004820152601360248201527213585c9ad95d081b9bdd081c995cdbdb1d9959606a1b6044820152606490fd5b15611cb857565b606460405162461bcd60e51b815260206004820152602060248201527f416d6f756e74206d7573742062652067726561746572207468616e207a65726f6044820152fd5b611db891611d0b811515611cb1565b7f0000000000000000000000000000000000000000000000000000000000000000611d7081600e5493611d416112cc838761285c565b94611d7d600f549687611d756714057b7ef767814f9788936112e56112cc670de0b6b3a76400009a8b9661285c565b61296f565b020486612a5d565b9615611dbb57611db3956112e56112cc87611da56112cc826112ff611dab99611d7099611e85565b9361285c565b020490612a5d565b611f1c565b90565b611db3956112e56112cc876112ff611dab96611ddd6112cc84611d709961285c565b95611e85565b8115611ded570490565b634e487b7160e01b5f52601260045260245ffd5b15611e0857565b60405162461bcd60e51b815260206004820152601060248201526f416d6f756e7420746f6f206c6172676560801b6044820152606490fd5b15611e4757565b60405162461bcd60e51b8152602060048201526016602482015275496e73756666696369656e74206c697175696469747960501b6044820152606490fd5b91908201809211611e9257565b634e487b7160e01b5f52601160045260245ffd5b929060c0949260018060a01b0380921685521660208401526040830152606082015260a060808201525f60a08201520190565b15611ee057565b60405162461bcd60e51b8152602060048201526014602482015273496e73756666696369656e742062616c616e636560601b6044820152606490fd5b91908203918211611e9257565b5f546001600160a01b03163303611f3c57565b60405163118cdaa760e01b8152336004820152602490fd5b680736ea4425c11ac63081116127c2576714057b7ef767814f90670de0b6b3a7640000918291020490680a688906bd8affffff82116127a957604091821b81900490600160bf1b67ff000000000000008316612698575b66ff0000000000008316612590575b65ff00000000008316612490575b64ff000000008316612398575b63ff00000083166122a8575b62ff000083166121c0575b61ff0083166120e0575b60ff8316612009575b02911c60bf031c90565b608083166120ce575b8383166120bc575b602083166120aa575b60108316612098575b60088316612086575b60048316612074575b60028316612062575b6001831615611fff576801000000000000000102831c611fff565b6801000000000000000102831c612047565b6801000000000000000302831c61203e565b6801000000000000000602831c612035565b6801000000000000000b02831c61202c565b6801000000000000001602831c612023565b6801000000000000002c02831c61201a565b6801000000000000005902831c612012565b61800083166121ae575b614000831661219c575b612000831661218a575b6110008316612178575b6108008316612166575b6104008316612154575b6102008316612142575b610100831615611ff657680100000000000000b102831c611ff6565b6801000000000000016302831c612126565b680100000000000002c602831c61211c565b6801000000000000058c02831c612112565b68010000000000000b1702831c612108565b6801000000000000162e02831c6120fe565b68010000000000002c5d02831c6120f4565b680100000000000058b902831c6120ea565b628000008316612296575b624000008316612284575b622000008316612272575b621000008316612260575b62080000831661224e575b62040000831661223c575b62020000831661222a575b62010000831615611fec576801000000000000b17202831c611fec565b680100000000000162e402831c61220d565b6801000000000002c5c802831c612202565b68010000000000058b9102831c6121f7565b680100000000000b172102831c6121ec565b68010000000000162e4302831c6121e1565b680100000000002c5c8602831c6121d6565b6801000000000058b90c02831c6121cb565b63800000008316612386575b63400000008316612374575b63200000008316612362575b63100000008316612350575b6308000000831661233e575b6304000000831661232c575b6302000000831661231a575b6301000000831615611fe15768010000000000b1721802831c611fe1565b6801000000000162e43002831c6122fc565b68010000000002c5c86002831c6122f0565b680100000000058b90c002831c6122e4565b6801000000000b17217f02831c6122d8565b680100000000162e42ff02831c6122cc565b6801000000002c5c85fe02831c6122c0565b68010000000058b90bfc02831c6122b4565b648000000000831661247e575b644000000000831661246c575b642000000000831661245a575b6410000000008316612448575b6408000000008316612436575b6404000000008316612424575b6402000000008316612412575b640100000000831615611fd557680100000000b17217f802831c611fd5565b68010000000162e42ff102831c6123f3565b680100000002c5c85fe302831c6123e6565b6801000000058b90bfce02831c6123d9565b68010000000b17217fbb02831c6123cc565b6801000000162e42fff002831c6123bf565b68010000002c5c8601cc02831c6123b2565b680100000058b90c0b4902831c6123a5565b65800000000000831661257e575b65400000000000831661256c575b65200000000000831661255a575b651000000000008316612548575b650800000000008316612536575b650400000000008316612524575b650200000000008316612512575b65010000000000831615611fc8576801000000b17218355102831c611fc8565b680100000162e430e5a202831c6124f2565b6801000002c5c863b73f02831c6124e4565b68010000058b90cf1e6e02831c6124d6565b680100000b1721bcfc9a02831c6124c8565b68010000162e43f4f83102831c6124ba565b680100002c5c89d5ec6d02831c6124ac565b6801000058b91b5bc9ae02831c61249e565b66800000000000008316612686575b66400000000000008316612674575b66200000000000008316612662575b66100000000000008316612650575b6608000000000000831661263e575b6604000000000000831661262c575b6602000000000000831661261a575b6601000000000000831615611fba5768010000b17255775c0402831c611fba565b6801000162e525ee054702831c6125f9565b68010002c5cc37da949202831c6125ea565b680100058ba01fb9f96d02831c6125db565b6801000b175effdc76ba02831c6125cc565b680100162f3904051fa102831c6125bd565b6801002c605e2e8cec5002831c6125ae565b68010058c86da1c09ea202831c61259f565b6780000000000000008316612796575b6740000000000000008316612784575b6720000000000000008316612772575b6710000000000000008316612760575b670800000000000000831661274e575b670400000000000000831661273c575b670200000000000000831661272a575b670100000000000000831615611fab57680100b1afa5abcbed6102831c611fab565b68010163da9fb33356d802831c612708565b680102c9a3e778060ee702831c6126f8565b6801059b0d31585743ae02831c6126e8565b68010b5586cf9890f62a02831c6126d8565b6801172b83c7d517adce02831c6126c8565b6801306fe0a31b7152df02831c6126b8565b5068016a09e667f3bcc909607f1b6126a8565b60405163b3b6ba1f60e01b815260048101839052602490fd5b60249060405190630d7b1d6560e11b82526004820152fd5b60405163a9059cbb60e01b60208201526001600160a01b03929092166024830152604480830193909352918152611a57916128166064836119ea565b61290a565b60026001541461282c576002600155565b604051633ee5aeb560e01b8152600490fd5b60ff6002541661284a57565b60405163d93c066560e01b8152600490fd5b670de0b6b3a7640000915f1983830992808302928380861095039480860395146128fd57828510156128da579082910960018219018216809204600280826003021880830282030280830282030280830282030280830282030280830282030280920290030293600183805f03040190848311900302920304170290565b8260649260405192630c740aef60e31b8452600484015260248301526044820152fd5b505090611db89250611de3565b905f602091828151910182855af115612964575f513d61295b57506001600160a01b0381163b155b6129395750565b604051635274afe760e01b81526001600160a01b039091166004820152602490fd5b60011415612932565b6040513d5f823e3d90fd5b90670de0b6b3a764000091828110612a45578281046001600160801b03811160071b90811c9067ffffffffffffffff821160061b91821c63ffffffff811160051b90811c61ffff811160041b90811c60ff811160031b90811c91600f831160021b92831c93600196600160038711811b96871c11961717171717171791848302921c93808514612a3e576706f05b59d3b2000094855b612a1157509193505050565b808291020494671bc16d674ec80000861015612a31575b821c9485612a05565b8095930192821c94612a28565b5090925050565b6024906040519063036d32ef60e41b82526004820152fd5b9091905f1983820983820291828083109203918083039214612ae157670de0b6b3a76400009081831015612ac357947faccb18165bd6fe31ae1cf318dc5b51eee0e1ba569b88cd74c1773b91fac1066994950990828211900360ee1b910360121c170290565b6044908660405191635173648d60e01b835260048301526024820152fd5b5050670de0b6b3a76400009004915056fea26469706673582212205cd2c3f1fc1ad2606547a277176674f382710212cd6b08d078bdf44cebaef9a964736f6c63430008180033",
  "linkReferences": {},
  "deployedLinkReferences": {}
}